S013000041544D204D616368696E652E737265635A
S11300000C946B000C9488000C9488000C94880069
S11300100C9488000C949D040C9488000C94880023
S11300200C9488000C9488000C9488000C9488002C
S11300300C9488000C9488000C9488000C9488001C
S11300400C9488000C9488000C9488000C9488000C
S11300500C94880007634236B79BD8A71A396856B0
S113006018AEBAAB558C1D3CB7CC5763BD6DEDFDD6
S1130070753EF6177231BF000000803F0800000093
S1130080BE922449123EABAAAA2ABECDCCCC4C3E89
S113009000000080BEABAAAAAA3E00000000BF0078
S11300A00000803F0000000000084178D3BB438774
S11300B0D1133D190E3CC3BD4282AD2B3E68EC8288
S11300C076BED98FE1A93E4C80EFFFBE01C4FF7F0D
S11300D03F000000000011241FBECFE5D8E0DEBFC2
S11300E0CDBF10E0A0E6B0E0ECE4F2E102C0059080
S11300F00D92A037B107D9F720E0A0E7B0E001C026
S11301001D92A037B207E1F70E9483020C942409E0
S11301100C940000CF93DF93EC010E94DA04811168
S11301200EC061E080EA0E94ED04863041F461E093
S1130130CE010E944E058D3011F40E943E05DF91E0
S1130140CF910895CF92DF92EF92FF920F931F9376
S1130150CF93DF937C01EC018C01005F1F4F6E0194
S1130160CE010E948A002196F601608170E080E051
S113017090E00E942102C017D10789F760E082E075
S11301800E947502F4E1EF0EF11CE801C8010E941F
S11301908A000F5F1F4F688170E080E090E00E944A
S11301A021020E151F0589F7DF91CF911F910F9141
S11301B0FF90EF90DF90CF900895EF92FF920F930E
S11301C01F93CF938C017B01C42F0E94DA04811109
S11301D018C060E080EA0E94ED04823091F4C70107
S11301E00E942405893069F4CC2359F0F12CC8010C
S11301F08F0D911D0E942405893009F4F394FC1697
S1130200B0F30E943E05CF911F910F91FF90EF90A4
S11302100895CF93C82F60E088E10E94D60360E080
S113022089E10E94D603C4FB662760F984E10E9439
S1130230D603C5FB662760F985E10E94D603C6FB99
S1130240662760F986E10E94D6036C2F661F662735
S1130250661F87E10E94D60361E08AE10E94D6030B
S113026089EF90E00197F1F700C0000060E08AE1B7
S11302700E94D60389EF90E00197F1F700C00000D7
S11302806C2F617084E10E94D603C1FB662760F97C
S113029085E10E94D603C2FB662760F986E10E94CD
S11302A0D603C3FB662760F987E10E94D60361E0A9
S11302B08AE10E94D60389EF90E00197F1F700C02C
S11302C0000060E08AE10E94D60389EF90E0019784
S11302D0F1F700C00000CF910895CF93C82F61E0DB
S11302E088E10E94D60360E089E10E94D603C4FB42
S11302F0662760F984E10E94D603C5FB662760F98E
S113030085E10E94D603C6FB662760F986E10E9458
S1130310D6036C2F661F6627661F87E10E94D603EB
S113032061E08AE10E94D60389EF90E00197F1F73A
S113033000C0000060E08AE10E94D60389EF90E0EB
S11303400197F1F700C000006C2F617084E10E94F6
S1130350D603C1FB662760F985E10E94D603C2FB80
S1130360662760F986E10E94D603C3FB662760F91D
S113037087E10E94D60361E08AE10E94D60389EFF7
S113038090E00197F1F700C0000060E08AE10E946C
S1130390D60389EF90E00197F1F700C00000CF91F8
S11303A0089560E084E10E94D40260E085E10E9447
S11303B0D40260E086E10E94D40260E087E10E94FA
S11303C0D40260E088E10E94D40260E089E10E94E6
S11303D0D40260E08AE10E94D40283ED90E30197A5
S11303E0F1F700C0000082E00E94090189EF90E06B
S11303F00197F1F700C0000088E20E94090189EF2B
S113040090E00197F1F700C000008CE00E94090120
S113041089EF90E00197F1F700C0000081E00E94AD
S1130420090183EF91E00197F1F700C0000086E035
S11304300E94090189EF90E00197F1F700C00000E4
S113044008958F929F92AF92BF92EF92FF921F9363
S1130450CF93DF93CDB7DEB760970FB6F894DEBFC6
S11304600FBECDBF611571058105910521F480E3AF
S11304700E946D012AC010E00F2EFAE08F2E912CFD
S1130480A12CB12CF02DEE24E394F12CEC0EFD1EE6
S1130490E10EF11CA50194010E947405605DF70151
S11304A060831F5F622F732F842F952F6115710551
S11304B08105910541F7112341F0FE01E10FF11D82
S11304C080810E946D011150C1F760960FB6F894B7
S11304D0DEBF0FBECDBFDF91CF911F91FF90EF9094
S11304E0BF90AF909F908F900895813029F480E859
S11304F0860F0E9409010895823021F480EC860F52
S11305000E9409010895CF93DF93CDB7DEB7AB976F
S11305100FB6F894DEBF0FBECDBF0E94D10180E0BC
S11305200E94A70480E00E94730480E1E0E6F0E00A
S1130530DE01119601900D928A95E1F781E0898B95
S113054082E08A8B83E08B8B84E08C8B1D8A80E134
S11305508E8B8E01095E1F4F85E1F80111928A95F9
S1130560E9F740E1BE016B5E7F4FCE0101960E9428
S1130570DD0087EA91E60197F1F700C0000044E04E
S1130580BE016A5E7F4FCE0141960E94DD009FE965
S1130590E6E8F1E09150E040F040E1F700C00000EF
S11305A0C8010E94A200FFCF982F96959695969524
S11305B0953008F0F9C08770613031F008F4A4C0B8
S11305C0623009F451C0EFC09130C1F028F092308C
S11305D039F19330B9F1E7C04AB321E030E0B90111
S11305E002C0660F771F8A95E2F7CB018095942F9E
S11305F098239ABB9BB389238BBBD5C047B321E017
S113060030E0B90102C0660F771F8A95E2F7CB018B
S11306108095942F982397BB98B3892388BBC3C034
S113062044B321E030E0B90102C0660F771F8A9518
S1130630E2F7CB018095942F982394BB95B389233B
S113064085BBB1C041B321E030E0B90102C0660FFF
S1130650771F8A95E2F7CB018095942F982391BB5D
S113066092B3892382BB9FC09130C1F028F09230AD
S113067039F19330B9F197C04AB321E030E0B901C0
S113068002C0660F771F8A95E2F7CB01962F9095EB
S113069094239ABB9BB3892B8BBB85C047B321E0C2
S11306A030E0B90102C0660F771F8A95E2F7CB01EB
S11306B0962F9095942397BB98B3892B88BB73C0CE
S11306C044B321E030E0B90102C0660F771F8A9578
S11306D0E2F7CB01962F9095942394BB95B3892B85
S11306E085BB61C041B321E030E0B90102C0660FAF
S11306F0771F8A95E2F7CB01962F9095942391BBAF
S113070092B3892B82BB4FC09130C1F028F0923054
S113071039F19330B9F147C04BB321E030E0B9016E
S113072002C0660F771F8A95E2F7CB01962F90954A
S113073094239BBB9AB3892B8ABB35C048B321E071
S113074030E0B90102C0660F771F8A95E2F7CB014A
S1130750962F9095942398BB97B3892B87BB23C07E
S113076045B321E030E0B90102C0660F771F8A95D6
S1130770E2F7CB01962F9095942395BB94B3892BE4
S113078084BB11C042B321E030E0B90102C0660F5E
S1130790771F8A95E2F7CB01962F9095942392BB0D
S11307A091B3892B81BB089582E00895982F969583
S11307B096959695953008F08EC0633008F08DC0FC
S11307C08770613009F040C09130A1F028F0923078
S11307D0F9F0933059F183C04BB321E030E0B90113
S11307E002C0660F771F8A95E2F7CB01842B8BBB7F
S11307F080E0089548B321E030E0B90102C0660FFB
S1130800771F8A95E2F7CB01842B88BB80E008959B
S113081045B321E030E0B90102C0660F771F8A9525
S1130820E2F7CB01842B85BB80E0089542B321E03D
S113083030E0B90102C0660F771F8A95E2F7CB0159
S1130840842B82BB80E00895611144C09130A9F0EB
S113085028F0923009F1933071F143C04BB321E099
S113086030E0B90102C0660F771F8A95E2F7CB0129
S1130870809584238BBB80E0089548B321E030E069
S1130880B90102C0660F771F8A95E2F7CB01809504
S1130890842388BB80E0089545B321E030E0B901AA
S11308A002C0660F771F8A95E2F7CB0180958423F7
S11308B085BB80E0089542B321E030E0B90102C075
S11308C0660F771F8A95E2F7CB018095842382BB5C
S11308D080E00895089582E0089583E0089580E01B
S11308E0089580E008958130F1F028F0823099F085
S11308F0833049F020C083B78F7B83BF83B7877F62
S113090083BF84E0089583B7806483BF83B7877F00
S113091083BF84E0089583B78F7B83BF83B78860E8
S113092083BF84E0089583B7806483BF83B78860FE
S113093083BF84E0089581E008951F920F920FB65B
S11309400F9211240F900FBE0F901F90189511B89D
S1130950813049F028F0823049F0833051F00BC0E7
S11309600898099808C0089A099805C00898099A2F
S113097002C0089A099A61B1637070E080E090E067
S11309800E94A6069B01AC0160E070E080E890E460
S11309900E9440079B01AC010E9497059B01AC019A
S11309A060E070E080E89FE40E9403060E94750600
S11309B060B9089586B7806886BF86B7806286BFAF
S11309C086B7846086BF06B607FEFDCF91B1987FD7
S11309D081E0983009F480E00895662319F06130CD
S11309E0A9F029C083B986B7806886BF86B78460BA
S11309F086BF06B607FEFDCF81B1887F8831E1F05E
S1130A0081B1887F8032D1F085E008958F5F83B90A
S1130A1086B7806886BF86B7846086BF06B607FE41
S1130A20FDCF81B1887F803459F081B1887F8834CB
S1130A3049F088E00895089582E0089583E00895D8
S1130A4086E0089587E00895FC01808183B986B724
S1130A50806886BF86B7846086BF06B607FEFDCF72
S1130A6081B1887F883231F081B1887F803321F071
S1130A708BE0089589E008958AE0089586B78F7D14
S1130A8086BF86B7806886BF86B7806186BF86B713
S1130A90846086BF06B604FCFDCF0895FC0166237E
S1130AA019F0613029F007C086B7806486BF03C09F
S1130AB086B78F7B86BF96B7906896BF96B79460CB
S1130AC096BF06B607FEFDCF83B1808381B1887FD0
S1130AD0803531F081B1887F883521F08EE008952A
S1130AE08CE008958DE00895A1E21A2EAA1BBB1B89
S1130AF0FD010DC0AA1FBB1FEE1FFF1FA217B307E6
S1130B00E407F50720F0A21BB30BE40BF50B661FFB
S1130B10771F881F991F1A9469F7609570958095BF
S1130B2090959B01AC01BD01CF0108955058BB279E
S1130B30AA270E94AE050C9406070E94F80638F016
S1130B400E94FF0620F039F49F3F19F426F40C9418
S1130B50F5060EF4E095E7FB0C94E106E92F0E94FC
S1130B60170758F3BA17620773078407950720F02D
S1130B7079F4A6F50C9439070EF4E0950B2EBA2FF0
S1130B80A02D0B01B90190010C01CA01A00111248F
S1130B90FF27591B99F0593F50F4503E68F11A163B
S1130BA0F040A22F232F342F4427585FF3CF4695CC
S1130BB037952795A795F0405395C9F77EF41F16EE
S1130BC0BA0B620B730B840BBAF09150A1F0FF0FB8
S1130BD0BB1F661F771F881FC2F70EC0BA0F621FA4
S1130BE0731F841F48F4879577956795B795F79594
S1130BF09E3F08F0B0CF9395880F08F09927EE0F29
S1130C009795879508950E9417060C9406070E94ED
S1130C10FF0658F00E94F80640F029F45F3F29F0DF
S1130C200C94E10651110C943A070C94F5060E94B9
S1130C30170768F39923B1F3552391F3951B550BCB
S1130C40BB27AA2762177307840738F09F5F5F4F9B
S1130C50220F331F441FAA1FA9F335D00E2E3AF0DA
S1130C60E0E832D091505040E695001CCAF72BD0F2
S1130C70FE2F29D0660F771F881FBB1F2617370743
S1130C804807AB07B0E809F0BB0B802DBF01FF2775
S1130C9093585F4F3AF09E3F510578F00C94E1066B
S1130CA00C943A075F3FE4F3983ED4F38695779526
S1130CB06795B795F7959F5FC9F7880F911D96952E
S1130CC0879597F90895E1E0660F771F881FBB1F8A
S1130CD0621773078407BA0720F0621B730B840B37
S1130CE0BA0BEE1F88F7E09508950E941F0788F05D
S1130CF09F5798F0B92F9927B751B0F0E1F0660FDC
S1130D00771F881F991F1AF0BA95C9F714C0B1301C
S1130D1091F00E943907B1E008950C943907672FC8
S1130D20782F8827B85F39F0B93FCCF3869577954B
S1130D306795B395D9F73EF4909580957095619534
S1130D407F4F8F4F9F4F0895E89409C097FB3EF45F
S1130D5090958095709561957F4F8F4F9F4F992304
S1130D60A9F0F92F96E9BB279395F6958795779582
S1130D706795B795F111F8CFFAF4BB0F11F460FF42
S1130D801BC06F5F7F4F8F4F9F4F16C0882311F09A
S1130D9096E911C0772321F09EE8872F762F05C0AE
S1130DA0662371F096E8862F70E060E02AF09A9549
S1130DB0660F771F881FDAF7880F9695879597F93E
S1130DC0089597F99F6780E870E060E008959F3F79
S1130DD031F0915020F4879577956795B795880FF2
S1130DE0911D9695879597F908959FEF80EC089546
S1130DF000240A94161617061806090608950024F6
S1130E000A9412161306140605060895092E03946F
S1130E10000C11F4882352F0BB0F40F4BF2B11F4E3
S1130E2060FF04C06F5F7F4F8F4F9F4F089557FD42
S1130E309058440F551F59F05F3F71F04795880F44
S1130E4097FB991F61F09F3F79F0879508951216DB
S1130E5013061406551FF2CF4695F1DF08C0161687
S1130E6017061806991FF1CF869571056105089438
S1130E700895E894BB2766277727CB0197F908954F
S1130E80FA01EE0FFF1F309621053105A1F161151E
S1130E90710561F48038BFE39B0749F16894903889
S1130EA0810561F08038BFEF9B0741F099234AF533
S1130EB0FF3FE1053105210519F1E8940894E79510
S1130EC0D901AA2329F4AB2FBE2FF85FD0F310C0A9
S1130ED0FF5F70F4A695E0F7F73950F019F0FF3A88
S1130EE038F49F779F930DD00F9007FC9058089586
S1130EF046F00C94F50660E070E080E89FE3089506
S1130F004FE79F775F934F933F932F930E943B0844
S1130F102F913F914F915F910E94B7080C949807CD
S1130F2029F416F00C94E1060C9439070C94F50698
S1130F300E941F07A8F39638A0F707F80F92E894C9
S1130F402BE33AEA48EB5FE70E94CD080F920F9239
S1130F500F924DB75EB70F920E948308E4E5F0E06C
S1130F600E94CA074F915F91EF91FF91E595EE1FA3
S1130F70FF1F49F0FE57E0684427EE0F441FFA951F
S1130F80E1F74195550B0E94FD070F9007FE0C9465
S1130F90F1070895DF93CF931F930F93FF92EF927E
S1130FA0DF927B018C01689406C0DA2EEF010E9467
S1130FB0CA08FE01E894A591259135914591559172
S1130FC0A6F3EF010E94AE05FE019701A801DA9491
S1130FD069F7DF90EF90FF900F911F91CF91DF9110
S1130FE008959B01AC0160E070E080E89FE30C94FD
S1130FF003060C94E1060C94E7060E941F07D8F33D
S11310009923C9F3940F511DA3F39150504094F0C8
S113101059F0882332F0660F771F881F9150504093
S1131020C1F79E3F51052CF7880F911D9695879522
S113103097F908955F3FACF0983E9CF0BB278695E6
S113104077956795B79508F4B1609395C1F7BB0F91
S113105058F711F460FFE8CF6F5F7F4F8F4F9F4FBA
S1131060E3CF0C943A0716F00C94E7060C94F506BB
S113107068940C94E1060E941F07A8F39923C1F316
S1131080AEF3DF93CF931F930F93FF92C92FDD2706
S113109088232AF02197660F771F881FDAF720E04C
S11310A030E040E85FEB9FE3883920F0803E38F081
S11310B021968F770E949705ECE7F0E004C00E9428
S11310C09705E9EAF0E00E94CA078B01BE01EC0132
S11310D0FB2E6F5771097595771F880B990B0E942A
S11310E0A60628E132E741E35FE30E94CA08AF2D78
S11310F09801AE01FF900F911F91CF91DF910E9453
S1131100AE050C940607FA01DC01AA0FBB1F9B0174
S1131110AC01BF5728F4222733274427507820C036
S1131120B75190F4AB2F0024469537952795011CB1
S1131130A395D2F3002071F0220F331F441FB395FF
S1131140DAF30ED00C94960561307105A0E88A0795
S1131150B94630F49B01AC0166277727882790783D
S1131160309621F0208331834283538308950E9473
S1131170CA080C9406070E94F80638F00E94FF067D
S113118020F0952311F00C94E1060C94F50611243B
S11311900C943A070E94170770F3959FC1F3950FBB
S11311A050E0551F629FF001729FBB27F00DB11DE7
S11311B0639FAA27F00DB11DAA1F649F6627B00D77
S11311C0A11D661F829F2227B00DA11D621F739F60
S11311D0B00DA11D621F839FA00D611D221F749F6E
S11311E03327A00D611D231F849F600D211D822FB5
S11311F0762F6A2F11249F5750409AF0F1F08823DC
S11312004AF0EE0FFF1FBB1F661F771F881F915008
S11312105040A9F79E3F510580F00C94E1060C94D0
S11312203A075F3FE4F3983ED4F386957795679544
S1131230B795F795E7959F5FC1F7FE2B880F911D32
S10F12409695879597F90895F894FFCFD0
S113124C010203040506070809090807060502023A
S9030000FC
